:020F7800BE2F8A
:100F7C007E01C3017E01D90140011214921440017B
:100F8C00141094104001990140010D1CE22F4001F6
:100F9C008D1CD92F400119149910F32740011910F9
:100FAC009914F327CA2F400119149910E627400110
:100FBC0019109914E627CA2F400119149914CA2F35
:100FCC006430F000C830F100C830F200F20BEC2FA6
:100FDC00F10BEA2FF00BE82F08003230F000C8308C
:100FEC00F100C830F200F20BF92FF10BF72FF00BD8
:040FFC00F52F0800C5
:020000040001F9
:0A000E008C1FFF3F9F3FFF3FFF3FA5
:00000001FF
