:020F7800BE2F8A
:100F7C007E01B8017E01C30140011114911440019E
:100F8C00121092104001970140010C1CE22F4001FD
:100F9C008C1CD92F400117149710F3274001171000
:100FAC009714F327CA2F400117149710E627400116
:100FBC0017109714E627CA2F400117149714CA2F3D
:100FCC006430F0006430F100C830F200F20BEC2F0A
:100FDC00F10BEA2FF00BE82F08003230F0006430F0
:100FEC00F100C830F200F20BF92FF10BF72FF00BD8
:040FFC00F52F0800C5
:020000040001F9
:0A000E008C1FFF3F9F3FFF3FFF3FA5
:00000001FF
